{
  "contractName": "Voting",
  "abi": [
    {
      "anonymous": false,
      "inputs": [
        {
          "indexed": true,
          "internalType": "uint256",
          "name": "contestId",
          "type": "uint256"
        },
        {
          "indexed": true,
          "internalType": "uint256",
          "name": "candidateId",
          "type": "uint256"
        },
        {
          "indexed": false,
          "internalType": "string",
          "name": "name",
          "type": "string"
        }
      ],
      "name": "CandidateAdded",
      "type": "event"
    },
    {
      "anonymous": false,
      "inputs": [
        {
          "indexed": true,
          "internalType": "uint256",
          "name": "contestId",
          "type": "uint256"
        },
        {
          "indexed": false,
          "internalType": "string",
          "name": "name",
          "type": "string"
        }
      ],
      "name": "ContestCreated",
      "type": "event"
    },
    {
      "anonymous": false,
      "inputs": [
        {
          "indexed": true,
          "internalType": "uint256",
          "name": "contestId",
          "type": "uint256"
        },
        {
          "indexed": true,
          "internalType": "uint256",
          "name": "candidateId",
          "type": "uint256"
        }
      ],
      "name": "Voted",
      "type": "event"
    },
    {
      "inputs": [
        {
          "internalType": "uint256",
          "name": "",
          "type": "uint256"
        }
      ],
      "name": "contests",
      "outputs": [
        {
          "internalType": "uint256",
          "name": "id",
          "type": "uint256"
        },
        {
          "internalType": "string",
          "name": "name",
          "type": "string"
        },
        {
          "internalType": "uint256",
          "name": "candidatesCount",
          "type": "uint256"
        },
        {
          "internalType": "uint256",
          "name": "votesCount",
          "type": "uint256"
        }
      ],
      "stateMutability": "view",
      "type": "function",
      "constant": true
    },
    {
      "inputs": [],
      "name": "contestsCount",
      "outputs": [
        {
          "internalType": "uint256",
          "name": "",
          "type": "uint256"
        }
      ],
      "stateMutability": "view",
      "type": "function",
      "constant": true
    },
    {
      "inputs": [
        {
          "internalType": "string",
          "name": "_name",
          "type": "string"
        }
      ],
      "name": "createContest",
      "outputs": [],
      "stateMutability": "nonpayable",
      "type": "function"
    },
    {
      "inputs": [
        {
          "internalType": "uint256",
          "name": "_contestId",
          "type": "uint256"
        },
        {
          "internalType": "string",
          "name": "_name",
          "type": "string"
        }
      ],
      "name": "addCandidate",
      "outputs": [],
      "stateMutability": "nonpayable",
      "type": "function"
    },
    {
      "inputs": [
        {
          "internalType": "uint256",
          "name": "_contestId",
          "type": "uint256"
        },
        {
          "internalType": "uint256",
          "name": "_candidateId",
          "type": "uint256"
        }
      ],
      "name": "vote",
      "outputs": [],
      "stateMutability": "nonpayable",
      "type": "function"
    },
    {
      "inputs": [
        {
          "internalType": "uint256",
          "name": "_contestId",
          "type": "uint256"
        }
      ],
      "name": "getContest",
      "outputs": [
        {
          "internalType": "uint256",
          "name": "",
          "type": "uint256"
        },
        {
          "internalType": "string",
          "name": "",
          "type": "string"
        },
        {
          "internalType": "uint256",
          "name": "",
          "type": "uint256"
        },
        {
          "internalType": "uint256",
          "name": "",
          "type": "uint256"
        }
      ],
      "stateMutability": "view",
      "type": "function",
      "constant": true
    },
    {
      "inputs": [
        {
          "internalType": "uint256",
          "name": "_contestId",
          "type": "uint256"
        },
        {
          "internalType": "uint256",
          "name": "_candidateId",
          "type": "uint256"
        }
      ],
      "name": "getCandidate",
      "outputs": [
        {
          "internalType": "uint256",
          "name": "",
          "type": "uint256"
        },
        {
          "internalType": "string",
          "name": "",
          "type": "string"
        },
        {
          "internalType": "uint256",
          "name": "",
          "type": "uint256"
        }
      ],
      "stateMutability": "view",
      "type": "function",
      "constant": true
    }
  ],
  "bytecode": "0x608060405234801561001057600080fd5b50610f66806100206000396000f3fe608060405234801561001057600080fd5b506004361061007d5760003560e01c806398ccaf091161005b57806398ccaf09146101035780639d7ed7381461011f578063b384abef14610152578063ec135a771461016e5761007d565b80631750a3d0146100825780634bd464481461009e578063904b9f72146100d0575b600080fd5b61009c60048036038101906100979190610a52565b61018c565b005b6100b860048036038101906100b39190610aa6565b6102bc565b6040516100c793929190610cad565b60405180910390f35b6100ea60048036038101906100e59190610a29565b61043d565b6040516100fa9493929190610ceb565b60405180910390f35b61011d600480360381019061011891906109e8565b61055a565b005b61013960048036038101906101349190610a29565b6105ec565b6040516101499493929190610ceb565b60405180910390f35b61016c60048036038101906101679190610aa6565b6106a4565b005b6101766108c2565b6040516101839190610c92565b60405180910390f35b60008211801561019e57506001548211155b6101dd576040517f08c379a00000000000000000000000000000000000000000000000000000000081526004016101d490610c32565b60405180910390fd5b6000806000848152602001908152602001600020905080600401600081548092919061020890610e32565b919050555060405180606001604052808260040154815260200183815260200160008152508160020160008360040154815260200190815260200160002060008201518160000155602082015181600101908051906020019061026c9291906108c8565b50604082015181600201559050508060040154837fed8911b3df733b7d5f75724158e54478ea12e30f49c9d31b5261879f5b76586f846040516102af9190610c10565b60405180910390a3505050565b60006060600080851180156102d357506001548511155b610312576040517f08c379a000000000000000000000000000000000000000000000000000000000815260040161030990610c32565b60405180910390fd5b6000806000878152602001908152602001600020905060008511801561033c575080600401548511155b61037b576040517f08c379a000000000000000000000000000000000000000000000000000000000815260040161037290610c72565b60405180910390fd5b6000816002016000878152602001908152602001600020905080600001548160010182600201548180546103ae90610e00565b80601f01602080910402602001604051908101604052809291908181526020018280546103da90610e00565b80156104275780601f106103fc57610100808354040283529160200191610427565b820191906000526020600020905b81548152906001019060200180831161040a57829003601f168201915b5050505050915094509450945050509250925092565b6000606060008060008511801561045657506001548511155b610495576040517f08c379a000000000000000000000000000000000000000000000000000000000815260040161048c90610c32565b60405180910390fd5b60008060008781526020019081526020016000209050806000015481600101826004015483600501548280546104ca90610e00565b80601f01602080910402602001604051908101604052809291908181526020018280546104f690610e00565b80156105435780601f1061051857610100808354040283529160200191610543565b820191906000526020600020905b81548152906001019060200180831161052657829003601f168201915b505050505092509450945094509450509193509193565b6001600081548092919061056d90610e32565b91905055506000806000600154815260200190815260200160002090506001548160000181905550818160010190805190602001906105ad9291906108c8565b506001547f2039e722aa93d71d7caed25dec035567733d02451bc4d332f60975e9cc46cad9836040516105e09190610c10565b60405180910390a25050565b600060205280600052604060002060009150905080600001549080600101805461061590610e00565b80601f016020809104026020016040519081016040528092919081815260200182805461064190610e00565b801561068e5780601f106106635761010080835404028352916020019161068e565b820191906000526020600020905b81548152906001019060200180831161067157829003601f168201915b5050505050908060040154908060050154905084565b6000821180156106b657506001548211155b6106f5576040517f08c379a00000000000000000000000000000000000000000000000000000000081526004016106ec90610c32565b60405180910390fd5b600080600084815260200190815260200160002090508060030160003373ffffffffffffffffffffffffffffffffffffffff1673ffffffffffffffffffffffffffffffffffffffff16815260200190815260200160002060009054906101000a900460ff161561079a576040517f08c379a000000000000000000000000000000000000000000000000000000000815260040161079190610c52565b60405180910390fd5b6000821180156107ae575080600401548211155b6107ed576040517f08c379a00000000000000000000000000000000000000000000000000000000081526004016107e490610c72565b60405180910390fd5b60018160030160003373ffffffffffffffffffffffffffffffffffffffff1673ffffffffffffffffffffffffffffffffffffffff16815260200190815260200160002060006101000a81548160ff021916908315150217905550806002016000838152602001908152602001600020600201600081548092919061087090610e32565b919050555080600501600081548092919061088a90610e32565b919050555081837f84a5508ca0d85b42a876e75a9126f3ae7b43617ce60b170bf8805d34630bc65460405160405180910390a3505050565b60015481565b8280546108d490610e00565b90600052602060002090601f0160209004810192826108f6576000855561093d565b82601f1061090f57805160ff191683800117855561093d565b8280016001018555821561093d579182015b8281111561093c578251825591602001919060010190610921565b5b50905061094a919061094e565b5090565b5b8082111561096757600081600090555060010161094f565b5090565b600061097e61097984610d68565b610d37565b90508281526020810184848401111561099657600080fd5b6109a1848285610dbe565b509392505050565b600082601f8301126109ba57600080fd5b81356109ca84826020860161096b565b91505092915050565b6000813590506109e281610f19565b92915050565b6000602082840312156109fa57600080fd5b600082013567ffffffffffffffff811115610a1457600080fd5b610a20848285016109a9565b91505092915050565b600060208284031215610a3b57600080fd5b6000610a49848285016109d3565b91505092915050565b60008060408385031215610a6557600080fd5b6000610a73858286016109d3565b925050602083013567ffffffffffffffff811115610a9057600080fd5b610a9c858286016109a9565b9150509250929050565b60008060408385031215610ab957600080fd5b6000610ac7858286016109d3565b9250506020610ad8858286016109d3565b9150509250929050565b6000610aed82610d98565b610af78185610da3565b9350610b07818560208601610dcd565b610b1081610f08565b840191505092915050565b6000610b28601383610da3565b91507f496e76616c696420636f6e746573742049442e000000000000000000000000006000830152602082019050919050565b6000610b68602783610da3565b91507f596f75206861766520616c726561647920766f74656420696e2074686973206360008301527f6f6e746573742e000000000000000000000000000000000000000000000000006020830152604082019050919050565b6000610bce601583610da3565b91507f496e76616c69642063616e6469646174652049442e00000000000000000000006000830152602082019050919050565b610c0a81610db4565b82525050565b60006020820190508181036000830152610c2a8184610ae2565b905092915050565b60006020820190508181036000830152610c4b81610b1b565b9050919050565b60006020820190508181036000830152610c6b81610b5b565b9050919050565b60006020820190508181036000830152610c8b81610bc1565b9050919050565b6000602082019050610ca76000830184610c01565b92915050565b6000606082019050610cc26000830186610c01565b8181036020830152610cd48185610ae2565b9050610ce36040830184610c01565b949350505050565b6000608082019050610d006000830187610c01565b8181036020830152610d128186610ae2565b9050610d216040830185610c01565b610d2e6060830184610c01565b95945050505050565b6000604051905081810181811067ffffffffffffffff82111715610d5e57610d5d610ed9565b5b8060405250919050565b600067ffffffffffffffff821115610d8357610d82610ed9565b5b601f19601f8301169050602081019050919050565b600081519050919050565b600082825260208201905092915050565b6000819050919050565b82818337600083830152505050565b60005b83811015610deb578082015181840152602081019050610dd0565b83811115610dfa576000848401525b50505050565b60006002820490506001821680610e1857607f821691505b60208210811415610e2c57610e2b610eaa565b5b50919050565b6000610e3d82610db4565b91507fffffffffffffffffffffffffffffffffffffffffffffffffffffffffffffffff821415610e7057610e6f610e7b565b5b600182019050919050565b7f4e487b7100000000000000000000000000000000000000000000000000000000600052601160045260246000fd5b7f4e487b7100000000000000000000000000000000000000000000000000000000600052602260045260246000fd5b7f4e487b7100000000000000000000000000000000000000000000000000000000600052604160045260246000fd5b6000601f19601f8301169050919050565b610f2281610db4565b8114610f2d57600080fd5b5056fea26469706673582212203dede46dd776557948ad5c7df78b2244084f506d3d2630e53e1fe301fb51ea4764736f6c63430008000033",
  "immutableReferences": {},
  "source": "// SPDX-License-Identifier: MIT\r\npragma solidity ^0.8.0;\r\n\r\ncontract Voting {\r\n    struct Candidate {\r\n        uint id;\r\n        string name;\r\n        uint voteCount;\r\n    }\r\n\r\n    struct Contest {\r\n        uint id;\r\n        string name;\r\n        mapping(uint => Candidate) candidates;\r\n        mapping(address => bool) voters;\r\n        uint candidatesCount;\r\n        uint votesCount;\r\n    }\r\n\r\n    mapping(uint => Contest) public contests;\r\n    uint public contestsCount;\r\n\r\n    event ContestCreated(uint indexed contestId, string name);\r\n    event CandidateAdded(uint indexed contestId, uint indexed candidateId, string name);\r\n    event Voted(uint indexed contestId, uint indexed candidateId);\r\n\r\n    function createContest(string memory _name) public {\r\n        contestsCount++;\r\n        Contest storage newContest = contests[contestsCount];\r\n        newContest.id = contestsCount;\r\n        newContest.name = _name;\r\n\r\n        emit ContestCreated(contestsCount, _name);\r\n    }\r\n\r\n    function addCandidate(uint _contestId, string memory _name) public {\r\n        require(_contestId > 0 && _contestId <= contestsCount, \"Invalid contest ID.\");\r\n        Contest storage contest = contests[_contestId];\r\n        contest.candidatesCount++;\r\n        contest.candidates[contest.candidatesCount] = Candidate(contest.candidatesCount, _name, 0);\r\n\r\n        emit CandidateAdded(_contestId, contest.candidatesCount, _name);\r\n    }\r\n\r\n    function vote(uint _contestId, uint _candidateId) public {\r\n        require(_contestId > 0 && _contestId <= contestsCount, \"Invalid contest ID.\");\r\n        Contest storage contest = contests[_contestId];\r\n        require(!contest.voters[msg.sender], \"You have already voted in this contest.\");\r\n        require(_candidateId > 0 && _candidateId <= contest.candidatesCount, \"Invalid candidate ID.\");\r\n\r\n        contest.voters[msg.sender] = true;\r\n        contest.candidates[_candidateId].voteCount++;\r\n        contest.votesCount++;\r\n\r\n        emit Voted(_contestId, _candidateId);\r\n    }\r\n\r\n    function getContest(uint _contestId) public view returns (uint, string memory, uint, uint) {\r\n        require(_contestId > 0 && _contestId <= contestsCount, \"Invalid contest ID.\");\r\n        Contest storage contest = contests[_contestId];\r\n        return (contest.id, contest.name, contest.candidatesCount, contest.votesCount);\r\n    }\r\n\r\n    function getCandidate(uint _contestId, uint _candidateId) public view returns (uint, string memory, uint) {\r\n        require(_contestId > 0 && _contestId <= contestsCount, \"Invalid contest ID.\");\r\n        Contest storage contest = contests[_contestId];\r\n        require(_candidateId > 0 && _candidateId <= contest.candidatesCount, \"Invalid candidate ID.\");\r\n        Candidate storage candidate = contest.candidates[_candidateId];\r\n        return (candidate.id, candidate.name, candidate.voteCount);\r\n    }\r\n}\r\n",
  "sourcePath": "C:\\Users\\jigya\\Documents\\voting-dapp\\contracts\\voting.sol",
  "compiler": {
    "name": "solc",
    "version": "0.8.0+commit.c7dfd78e.Emscripten.clang"
  },
  "schemaVersion": "3.4.16",
  "updatedAt": "2024-07-28T09:18:34.039Z",
  "networkType": "ethereum",
  "devdoc": {
    "kind": "dev",
    "methods": {},
    "version": 1
  },
  "userdoc": {
    "kind": "user",
    "methods": {},
    "version": 1
  }
}